:0200000460009A
:100000004643464200000156000000000103030081
:1000100000000000000000000000000000000000E0
:1000200000000000000000000000000000000000D0
:1000300000000000000000000000000000000000C0
:1000400000000000010408000000000000000000A3
:100050000000800000000000000000000000000020
:100060000000000000000000000000000000000090
:100070000000000000000000000000000000000080
:10008000EB04180A063204260000000000000000FD
:10009000050404240000000000000000000000002F
:1000A0000000000000000000000000000000000050
:1000B0000604000000000000000000000000000036
:1000C0000000000000000000000000000000000030
:1000D00020041808000000000000000000000000DC
:1000E0000000000000000000000000000000000010
:1000F0000000000000000000000000000000000000
:10010000D8041808000000000000000000000000F3
:100110000204180804200000000000000000000095
:1001200000000000000000000000000000000000CF
:10013000600400000000000000000000000000005B
:1001400000000000000000000000000000000000AF
:10015000000000000000000000000000000000009F
:10016000000000000000000000000000000000008F
:10017000000000000000000000000000000000007F
:10018000000000000000000000000000000000006F
:10019000000000000000000000000000000000005F
:1001A000000000000000000000000000000000004F
:1001B000000000000000000000000000000000003F
:1001C000000100000010000001000000000000001D
:1001D000000001000000000000000000000000001E
:1001E000000000000000000000000000000000000F
:1001F00000000000000000000000000000000000FF
:10020000FFFFFFFFFFFFFFFFFFFFFFFFFFFFFFFFFE
:10021000FFFFFFFFFFFFFFFFFFFFFFFFFFFFFFFFEE
:10100000D10020432914006000000000000000000F
:101010002010006000100060002C02600000000042
:10102000000000600038020000000000FFFFFFFF2A
:10103000FFFFFFFFFFFFFFFFFFFFFFFFFFFFFFFFC0
:10104000FFFFFFFFFFFFFFFFFFFFFFFFFFFFFFFFB0
:10105000FFFFFFFFFFFFFFFFFFFFFFFFFFFFFFFFA0
:10106000FFFFFFFFFFFFFFFFFFFFFFFFFFFFFFFF90
:10140000884207D0904205D251F8043B40F8043B93
:101410008242F9D8704700BF884204D2002340F8C6
:10142000043B8142FBD87047664B4FF42A01664A61
:1014300066482DE9F0475A641864654A99639546F1
:10144000BFF34F8FBFF36F8F00F030F9614B08206F
:10145000614A6249C3F854016148FFF7D1FF614A0C
:1014600061496248FFF7CCFF61496248FFF7D4FF4A
:10147000614C62494FF470000023614A086044F8EF
:1014800023200133B02BFAD15E4B80215E4A03F852
:10149000011B9342FBD14F4D4FF080385B494FF019
:1014A000FF325B4B0026DFF8A4A1DFF8A4911C609B
:1014B000C5F80481C5F800A1C5F8F480C5F8F0901E
:1014C0000B68544F43F4E0230B60FB693D4923F064
:1014D0007F0343F04003FB617B6A23F07F0343F00B
:1014E00040037B628A66CA660A674A6700F0E4F8CE
:1014F000494A4A4B6320A2630321E363484A494BAC
:10150000106000F160401E6042F8041C00F6A170FB
:101510004549464AC3F8082D0B68454A43F0807395
:101520000B601368434943F00103136003680B60C9
:1015300000F012FBC5F804813F48C5F800A1C5F8CA
:10154000F480C5F8F09000F087FCF96E3B4A41F456
:1015500040513B4BF9661660C2F80861C2F8186149
:10156000C2F82861C2F838619A6BD20708D442F6F3
:101570001562344959651A659A6B42F001029A6303
:101580002F4A314C936843F00113936000F006F941
:1015900000F060F800F054FC00F010FB00F088F858
:1015A0002368132BFCD900F097FB2368B3F5967FD3
:1015B000FBD300F07FF800F047FC00F051FC30BF97
:1015C000FDE700BF00C00A40FFAAAAAA070020004A
:1015D0000000062000800D40D8970100945E006056
:1015E00000000000C032002070F601600000002002
:1015F00020B50020C03200200030002088ED00E03F
:10160000694E010000E400E0A0E400E024ED00E009
:1016100008ED00E000C00F40716B0100756B010028
:1016200014E000E018E000E0FCED00E00000202005
:10163000001000E03CB100200046C32300400840F9
:1016400000400D400000C05640B100201B10182083
:101650000C0D1113114B1249D86E0A4640F440305C
:1016600030B4D86640F23765D86EA02440F440709C
:10167000D8664D648C64936C1B06FCD4094B40F215
:101680003760A0211A4658649964936C13F0800364
:10169000FBD1054A137030BC704700BF00C00F403B
:1016A00000400C4000800C4038B30020704700BF61
:1016B000704700BF704700BFF0B5244A0020244B9C
:1016C0004FF0100C234C1126DFF8C8E012272060E1
:1016D0000125C2F800C0C3F800E01660DFF8B8E0EA
:1016E0001D4EC3F800E01D4917601E6041F0150152
:1016F0001B4F1C4E17601E601B4F1C4E17601E6058
:101700001B4F11601B4E1C491F6016601B4F196058
:101710001B4E1C4917601E601B4F11601B4E1C495D
:101720001F60166019602560BFF34F8FBFF36F8F86
:10173000C3F8B001BFF34F8FBFF36F8F52F8883CEF
:1017400043F4403342F8883CF0BD00BF9CED00E01C
:10175000A0ED00E094ED00E00900100020B50020AD
:1017600013002000210002071400002025000813A8
:10177000090000101600202027000B13170000405E
:1017800033001013180000602F000B0719000070C1
:101790002F000B133F00001025000803F0B58D4B00
:1017A00018228D4E01208D4948F20C7E8C4D4FF051
:1017B000FF378C4C83B0C3F85C12C3F8605200252D
:1017C000C3F86412C3F868424FF40054C3F86C6263
:1017D0008549C3F87062C3F87462C3F87862834EB7
:1017E000DA661A675A679A67DA67C3F88020C3F81F
:1017F0008420C3F8882040F20562C1F82C03C1F8A8
:101800003003C1F83403C1F83803C1F83C03C1F810
:1018100050032946B36976481840764B034376480F
:10182000B361D6F8843043F00C03C6F88430022646
:10183000036833430360036803EA0E0E6F4B4EEAFE
:101840000303DFF8F0E103606D4B4760DEF80870DA
:101850003B406C4F43F000538360C36823F0780330
:10186000C360036A1F40684B3B43664F0362036AD1
:101870001F40654B3B43654F43628762C762DEF89A
:10188000B830634F23F03F0343F00103C0F8B83092
:10189000DEF8BC30DFF884E123F03F0343F00103BE
:1018A000C0F8BC30056104660767C0F88020446654
:1018B0004767C0F884200468564B24F00204564A57
:1018C0000460C0F818E0C66143F8041B9342FBD1E2
:1018D000494B1A68194642F001021A600B68464AE1
:1018E00013F00103FAD14D4E022540F2F56440F2A7
:1018F000664040F299414A4F966142F20146D561F5
:1019000040F23545C2F8004242F20124C2F810020A
:101910000120C2F820121146C2F8307207F15A476E
:10192000C2F8346207F51377C2F840523D4E3E4D7F
:10193000C2F85072C2F85462C2F86052C2F86442EF
:10194000C2F8A030C2F8A430C2F8B0004B692A4AED
:10195000DD07FBD5012300244FF48030114653618D
:10196000C2F8A040C2F8A400C2F8B0304B69224AC5
:10197000DC07FBD5012300244FF4003011465361EE
:10198000C2F8A040C2F8A400C2F8B0304B691A4AAD
:10199000D807FBD501230024244811465361C2F81F
:1019A000A040C2F8A400C2F8B0304B69124ADB076D
:1019B000FBD5D2F8003145F60D5121209BB2506184
:1019C0008B4239D01A4B00221A605A609A60DA6052
:1019D00003B0F0BD00801F40F9700100F9B00100B4
:1019E000F9100100F900010000841F4000C00F4001
:1019F000FFFCFF1F000300A000402A401200FFFF71
:101A0000FF37F70000FFF07C40000080FF000F83ED
:101A10006300020000422A4000432A40F05AF05A74
:101A20009F041830063201263806180A0400030005
:101A3000A4B3002000802A4000244FF4802001231A
:101A40001146C2F8A040C2F8A400C2F8B0304B69F9
:101A50003B4ADF07FBD501234FF400040020114669
:101A60005361C2F8A040C2F8A400C2F8B0304B697C
:101A7000334ADE07FBD501234FF400044FF48030D6
:101A800011465361C2F8A040C2F8A400C2F8B030B9
:101A90004B692B4ADD07FBD501234FF400044FF4BB
:101AA000003011465361C2F8A040C2F8A400C2F849
:101AB000B0304B69224ADC07FBD501234FF4000408
:101AC000204811465361C2F8A040C2F8A400C2F8F1
:101AD000B0304B691A4AD807FBD5D2F8003145F629
:101AE0000D5121209BB250618B4210D0164B082221
:101AF0004FF400041A7015490020154A0123009084
:101B0000521A1448224400F093F903B0F0BD4FF488
:101B100000044FF4802101231046C2F8A040C2F80F
:101B2000A410C2F8B03043690549DB07FBD501209A
:101B3000054B10224FF0807448611A70DBE700BF3C
:101B400000402A40040003003BB300200000007066
:101B500000000070A4B30020F0B4174A40274FF4EF
:101B600080314FF480564FF400554FF4404443F217
:101B70004200136913F0020F06D094615161906125
:101B8000136913F0020FF8D113F4005F01D155610E
:101B9000EFE713F4805F01D15661EAE7002BE8DA42
:101BA00013F4803F01D09161E3E75B0601D45761F4
:101BB000DFE7F0BC704700BF00800D40394A0320CA
:101BC0003949F3EE095A13689FED386A23F001038F
:101BD000DFED376AF0B4136000241061D1F8E03013
:101BE000344FD8B2C3F30B211B0D334E07EE100A4E
:101BF00005EE101A07EE903A304BB8EEC55A304D4C
:101C0000B8EEC77A3060F8EEE77A29602D4937EEF2
:101C1000466A2D4E77EEC57A2C4877EE666A2C4DD3
:101C200037EE657A26EE276AC7ED007A66EEA76A78
:101C3000176867EE277A83ED007AC6EE075A86EEBC
:101C4000876AC7EE876A35EE857AFCEEC77A36EE8C
:101C5000057A17EE903ABCEEC77A47EA035376EE60
:101C6000857A136017EE103AD2F81071FCEEE77A1D
:101C700001EA0341394317EE903AC2F81011C3F359
:101C80000B03D2F810110B43C2F81031136843F064
:101C9000020313603470C0F840510E4B0122F0BCB7
:101CA0001A60704780810D4000441F400000AA4226
:101CB0000000B442CCAC0020C4AC0020C8AC002072
:101CC000C0AC00200000FF0F40E400E00030002026
:101CD0002D50010008E100E0304B40F6617270B514
:101CE000C3F8202140F2044500F0B2F82C492D48F9
:101CF000D1F880202C4C42F003022C4BC1F88020FC
:101D0000C0F86051226813401BB9D0F8A8319A0777
:101D10001AD0244B4FF00041234A51631A46D3F89E
:101D2000401141F00201C3F84011D2F840319B0745
:101D3000FBD44FF400301E491B4B4FF000420860AB
:101D400019209A6300F070F81A4D0022164B4FF0DC
:101D50008041144C0A26996328461A601146C4F83B
:101D6000A8614FF4207200F067F84FF4810640F24A
:101D700043114FF48000104B104A2E602864C4F8C1
:101D80005851C4F84811C3F804220D4A4FF40031E9
:101D900001231160C4F8403170BD00BF00800D40C8
:101DA00000C00F4000002E4000900D40001C1E009F
:101DB0008CE200E00000002000300020F95101001A
:101DC0000CE100E008B50E4B1B6E9B0700D4FBBE78
:101DD00072B60C4B00200C4AC3F8400103F160437B
:101DE0000A49A3F55F2311649D46BFF34F8F084A4C
:101DF00003F5E0430749126818461960936898474D
:101E000000441F4000002E4000C00A400300200094
:101E10001C002000000012EBF8B500BFF8BC08BCA5
:101E20009E467047000000005FF800F01D4401006E
:101E30005FF800F0A57901005FF800F0E181010092
:101E40005FF800F0814B01005FF800F06D7A01004F
:101E50005FF800F0015A01005FF800F059410100FD
:101E60005FF800F0C977010001010000317A00003D
:0C1E7000D1B00000CDBE0000D134010054
:101E7C003C2900604426006020007E001D0000000C
:101E8C00045B00600C58006020007E00070000001E
:101E9C00784800608045006020007E002000000033
:101EAC00C4210060CC1E006020007E0016000000E3
:101EBC00E8330060F030006020007E002A00000053
:101ECC0000000000050001000000020D0602F400F5
:101EDC00040005040601F40007000A0C0A00F500D2
:101EEC00160009100A01F3002800100D1001F4006F
:101EFC0042000B0D0C01F400540002040401F40028
:101F0C00550004110601F4005E0004110601F400F2
:101F1C00670005050701F4006B0006080B03F900C8
:101F2C007100020405020000720004010601FC00AD
:101F3C0073000201050100007400050D0500F4009A
:101F4C007D00080D0A01F4008A00040D0A03F40058
:101F5C009100090D0A01F400A000080D0A01F4001B
:101F6C00AD00070D0A02F400B900090D0A01F400D6
:101F7C00C800090D0A01F400D700080D0A00F4008E
:101F8C00E400090D0A01F400F300080D0A01F40045
:101F9C000001020A0501F7000301030C0501F8001A
:101FAC00080109090B01F800130109040B01FB00DE
:101FBC00180109090B01F8002301090D0A01F400AD
:101FCC00320111101201F40054010C0D0C00F4003C
:101FDC0068010B0D0C01F4007A010B0D0D01F400DE
:101FEC008C010B0D0D01F4009E01090D0B01F40089
:101FFC00AD01080D0B01F400BA010C0D0E01F4003B
:10200C00CE010B0D0D01F400E001020D0502F400F0
:10201C00E401070D0A01F400F0010B0D0C01F400B2
:10202C000202080D0A01F4000F020D0D0F01F4005D
:10203C0025020B0D0D01F40037020D0D0E01F400FD
:10204C004D020A0D0C01F4005E020D0E0E01F4009F
:10205C0075020C0D0D01F40089020A0D0C01F4003F
:10206C009A02090D0B01F400A9020B0D0D01F400ED
:10207C00BB020B0D0C00F400CD02110D1100F4008D
:10208C00E9020C0D0C00F400FD020C0D0C00F40028
:10209C0011030A0D0B01F400220303110501F400D6
:1020AC002903050D0500F400320303110500F400AB
:1020BC00390307070801F40040030A010A00030072
:1020CC00420304030500F4004403090A0A01F70063
:1020DC005003090D0A01F4005F03080A0901F70017
:1020EC006903080D0A01F4007603080A0A01F700D7
:1020FC008003040D0501F4008703080E0A01F700A4
:10210C009503080D0A01F400A203020D0401F4006A
:10211C00A60304110400F400AF03090D0901F40037
:10212C00BE03020D0401F400C2030D0A0F01F700F7
:10213C00D303080A0A01F700DD03080A0A01F700B5
:10214C00E703090D0A01F700F603080D0A01F70071
:10215C000304050A0601F7000A04080A0901F7003E
:10216C001404040C0501F5001A04080A0A01F7000E
:10217C002404090A0900F70030040D0A0D00F700C9
:10218C004104080A0900F7004B04090E0900F70086
:10219C005B04070A0901F700640404110601F4004A
:1021AC006D0402110402F400720404110601F4001F
:1021BC007B0407030901F900FFFFF8C0DEF72009D3
:1021CC00864191FF1304C320C8FF89826190101FC0
:1021DC0014DA3D1E8340781708F47A3533F040202A
:1021EC003810EC20C620C640C6406C803900013C3B
:1021FC000277026304630477083C0E0660CC1981F5
:10220C00E0180F0336C2D8730631E3C4FE13266CF4
:10221C00CCCCC46623108C4663333332664C802599
:10222C007EA50030C33F30C30CD6F0C0084421104B
:10223C0084421108003C6642C3C3C3C3C3C3C34238
:10224C00663C113F33333333303E31B07830181C99
:10225C001C1C1818100807F83C66C3C303061C079F
:10226C0003C3C3663C0C187162C9A346FE183060E8
:10227C00C07F2010080807F38C030180F06C63E02A
:10228C001E3198780C06F38D83C1E0D06C63E0FFAF
:10229C00030206040C081818181030303E31B078C0
:1022AC003C1B18F8C6C1E0F06C63E03C66C2C3C3CB
:1022BC00C3673B0303C2663CC00030C0000064A08F
:1022CC000081C78E0C0780700E0180FF80001FF00C
:1022DC0000700E01C0183871C080003E31B07830EB
:1022EC0018183818180C0000018003F0060E0601AF
:1022FC008600661DBB31CF18C79863CC31E611B38D
:10230C0099CCF7860001800070400FE00600F00FBA
:10231C00009019819810830C3FC204606606C0308F
:10232C00FF183303606C0D833FC606C0780F01E0C5
:10233C006FF81F861981A03C0180300600C0680D23
:10234C00831861F0FF183303603C0780F01E03C054
:10235C00780F0360CFF0FFE030180C0603FD80C04F
:10236C006030180FF8FFC0C0C0C0C0FEC0C0C0C0F5
:10237C00C0C00F830E606603C00C00C1FC03C036E6
:10238C000360730F0F10C0780F01E03C0780FFFE55
:10239C0003C0780F01E03C06FFFFFFC0060C1830AD
:1023AC0060C183078F1E2780C0D8330C630CC1B863
:1023BC003F0730C3186306606C0CC0C0C0C0C0C0FF
:1023CC00C0C0C0C0C0C0FFE03F01FC1FE0FD05EC79
:1023DC006F637913CD9E6CF1478E3C7180E07C0F5E
:1023EC00C1E83D8798F11E33C3786F07E07C0E0F70
:1023FC008183180CC06C01E00F007803C01B01989E
:10240C000C60C0F800FF306C0F03C0F06FF300C01D
:10241C00300C0300C0000F8183180CC06C01E00F5E
:10242C00007803C01B01986C60C0FB0008FF8C0E89
:10243C00C06C06C06C0CFF8C0EC06C06C06C06C069
:10244C00703F186C0F03C01E01F00E00F03C0D869F
:10245C003F00FF86030180C06030180C060301802A
:10246C00C0C0780F01E03C0780F01E03C0780F015C
:10247C00B061F0C06C0D8110630C610460CC19016B
:10248C00603C070060C18130E19870CC2866262141
:10249C001330C8986C4C14340A1A07070303808154
:1024AC008060630C30C1980F00E00600F0190198B1
:1024BC0030C60E6060C0360630C30C1981D80F00D0
:1024CC00600600600600600600FFC060300C06036A
:1024DC0001C0603018060300FFC0FB6DB6DB6DB6A3
:1024EC00E0841084108410841080EDB6DB6DB6DBB4
:1024FC00E03060A244D8A180FFC0C6307E71B0C06D
:10250C0060F3DB0D86C73DC0C060301BCE360F07B5
:10251C0083C1E0F07C6DE03C66C3C0C0C0C0C36644
:10252C003C0303033B67C3C3C3C3C3C3673B3C66E2
:10253C00C3C3FFC0C0C3663C366F66666666603B4D
:10254C0067C3C3C3C3C3C3673B0303C67CC0C0C05C
:10255C00DEE3C3C3C3C3C3C3C3C3C3FFFFC03003E2
:10256C00333333333333E0C06030184C466361F09F
:10257C00EC6231986C30FFFFFFC0DEF71CF0C786B1
:10258C003C31E18F0C7863C31E18C0DEE3C3C3C3B8
:10259C00C3C3C3C3C33C66C3C3C3C3C3C3663CDEAC
:1025AC0071B0783C1E0F0783E36F30180C003B674B
:1025BC00C3C3C3C3C3C3673B030303DF318C6318BB
:1025CC00C6003EE3C0C0E03C07C3E37E66F6666629
:1025DC006667C3C3C3C3C3C3C3C3C77BC1A098CC03
:1025EC004221B0D0281C0C00C61E3891C4CA66D338
:1025FC0016D0A6871C38C0C6004362361C181C3C7B
:10260C00266243C12198CC4261B0D0381C0C060321
:10261C00010300FE0C30C1861820C1FC3666666EC4
:10262C00CE66666630FFFFFFFFC0C666666737661C
:10263C006666C0612438000000000000060001003E
:10264C00000002120803EF00050006060801F00066
:10265C000A000D100D00F10024000B140D01EF0009
:10266C00400014111501F0006B000E111001F00068
:10267C00890002060501F0008B0005170802EF0027
:10268C009A0005170801EF00A90007070901EF00E0
:10269C00B0000A0B0E02F600BE0002060702FF0095
:1026AC00C00006020801F900C20002020602FF0087
:1026BC00C30007120700EF00D3000B110D01F0004F
:1026CC00EB0005110D03F000F6000B110D01F000ED
:1026DC000E010B110D01F00026010B110D01F00084
:1026EC003E010B110D01F00056010B110D01F00014
:1026FC006E010B110D01F00086010B110D01F000A4
:10270C009E010B110D01F000B601020D0602F40042
:10271C00BA0102100602F500BE010C0C0E01F50008
:10272C00D0010C060E01F800D9010C0C0E01F500BD
:10273C00EB010A120D02EF00020216151801EF0050
:10274C003C0210121000EF0060020D121002EF009C
:10275C007E020F121101EF00A0020E121102EF0007
:10276C00C0020C120F02EF00DB020B120E02EF0084
:10277C00F40210121201EF0018030D121102EF00F7
:10278C00360302120702EF003B0309120D01EF00A2
:10279C0050030E121002EF0070030A120E02EF002B
:1027AC00870310121402EF00AB030D121202EF009C
:1027BC00C90311121301EF00F0030C121002EF0009
:1027CC000B0411131301EF0034040E121102EF006D
:1027DC0054040E121001EF0074040C120F01EF00E0
:1027EC008F040D121102EF00AD040F120F00EF0059
:1027FC00CF0416121600EF0001050F121000EF00A7
:10280C00230510121000EF0047050D120F01EF0009
:10281C00650504170702EF00710507120700EF00AA
:10282C00810504170701EF008D0509090B01F00064
:10283C0098050F010DFF04009A0505040601EF0031
:10284C009D050C0D0D01F400B1050C120D01EF00EE
:10285C00CC050A0D0C01F400DD050B120D01EF0087
:10286C00F6050B0D0D01F400080605120701EF002B
:10287C0014060B120D01F4002D060A120D01EF00C7
:10288C00440602120502EF00490604170600EF0089
:10289C0055060B120C01EF006E0602120501EF003B
:1028AC007306110D1301F4008F060A0D0D01F400CF
:1028BC00A0060B0D0D01F400B2060C110D01F40075
:1028CC00CC060B110D01F400E406060D0801F40012
:1028DC00EE060A0D0C01F400FF0605100701F100CD
:1028EC0009070A0D0D01F4001A070C0D0C00F40079
:1028FC002E07110D1100F4004A070B0D0B00F4000C
:10290C005C070B120B00F40075070A0D0C01F400A8
:10291C00860705170801EF00950702170602EF005E
:10292C009B0705170802EF00AA070A050C01F60021
:10293C00FFFFFFF0F0CF3CF38A200630310318186C
:10294C00C7FFBFFC31031818C7FFBFFC31011818B3
:10295C00C0C606300403E1FF726C4788F107207E85
:10296C0003F017023C4788F11B267FC3E0100200DE
:10297C00000603C0407E0C0E7080C3180C3100E7BB
:10298C003007E6003C40000C7C008FE019C70118B2
:10299C00303183021C7040FE0407C00F007E039C84
:1029AC000C3030C0E701F803803E01CC6E19B07CCE
:1029BC00C0F303CE1F9FE61E1CFFA0088C66319847
:1029CC00C6318C63086308610C208218C318C318C5
:1029DC00C6318C623188C4620010235BE38D910098
:1029EC000C0300C030FFFFF0C0300C0300C0F560DA
:1029FC00FFF0F0020C1020C1020C1020C1020C10D0
:102A0C0020C1001F07F1C7306E0F80F01E03C07885
:102A1C000F01E03C0EC19C71FC1F0008CFFF8C63C2
:102A2C0018C6318C63181F0FF987607C0600C0181C
:102A3C000701C0F0781C0600803007FFFFE03F0F55
:102A4C00F387606C0C0180707C0F801801803C0750
:102A5C0080D873FC1F000180700E03C0D81B066168
:102A6C008C218C33067FFFFE0300600C01803FCF6E
:102A7C00F980300600DE1FE70E00E00C0180300705
:102A8C0081F873FC1F000F07F9C33074018033C742
:102A9C00FEF0DC1F01E03C06C1DC71FC1F00FFFFF7
:102AAC00FC010060180200C0300601803004018077
:102ABC003006018030001F07F1C730660CC18C61F5
:102ACC00FC3F8E3B01E03C0780D831FC1F001F0708
:102ADC00F1C7706C0780F01E0761EFFC7980300540
:102AEC00819873FC1E00F00003C0F0000F5600002C
:102AFC000701E0F83C0F00E007C00F003C00F001BC
:102B0C00FFFFFF000000FFFFFF000E007801F00741
:102B1C00C00F00701E0F03C0F008001F1FEE1B0338
:102B2C00C0C0300C060381C0E0300C030000000C68
:102B3C00030000FE000FFE00F03E07003C380030A2
:102B4C00C1E0660FD9D861C3C3070F1C1C3C606081
:102B5C00F18183C6061B1838EE71E718FDF871E792
:102B6C00C0E00001E00001FFC001FC0003C003C095
:102B7C0003C007E0066006600E700C300C301C3889
:102B8C0018181FF83FFC301C300C700E60066006E5
:102B9C00FFC7FF3019806C03601B00D80CFFC7FF08
:102BAC00300D803C01E00F007806FFF7FE0007E0D7
:102BBC003FF0E0738066006C0030006000C0018064
:102BCC000300060006006C00DC031E0E1FF80FC08D
:102BDC00FF83FF8C07300EC01B007C00F003C00F7E
:102BEC00003C00F003C01F006C03B01CFFE3FF00AF
:102BFC00FFFFFFC00C00C00C00C00C00FFEFFEC0BC
:102C0C000C00C00C00C00C00FFFFFFFFFFFF0060BA
:102C1C000C0180300600FFDFFB00600C01803006E9
:102C2C0000C0180007F01FFC3C1E70066003E0009B
:102C3C00C000C000C07FC07FC003C003600360073A
:102C4C00300F3C1F1FFB07E1C01E00F007803C014A
:102C5C00E00F007803FFFFFFF007803C01E00F005E
:102C6C007803C01E00C0FFFFFFFFF00180C0603082
:102C7C00180C06030180C0603C1E0F07C77F1F00A5
:102C8C00C03B01CC0E3070C3831C0CE03380DE03E0
:102C9C00DC0E383060C1C3038C06301CC03B0060B6
:102CAC00C0300C0300C0300C0300C0300C0300C05B
:102CBC00300C0300FFFFF0E007E007F00FF00FD03F
:102CCC000FD81BD81BD81BCC33CC33CC33C663C624
:102CDC0063C663C3C3C3C3C3C3C183E01F00FC0784
:102CEC00E03D81EE0F3079C3C61E18F0E7833C1D22
:102CFC00E06F01F80FC03E01C003E00FFC0F078628
:102D0C0000C60033001B00078003C001E000F00088
:102D1C0078003600330018C018783C1FFC03F8000C
:102D2C00FF8FFEC06C03C03C03C03C07FFEFFCC030
:102D3C000C00C00C00C00C00C00C0003E00FFC0F1A
:102D4C00078600C60033001B00078003C001E000AB
:102D5C00F00078003600330198C0FC783C1FFF036C
:102D6C00F9800040FFC3FFCC03B006C01B006C0110
:102D7C00B00CFFE3FFCC03B006C01B006C01B00627
:102D8C00C01B00700FE07FC3839C07600D800600A2
:102D9C001E003F803FC00F8007C00F003E00DE0EBC
:102DAC003FF03F80FFFFFF060060060060060060FA
:102DBC00060060060060060060060060060060C049
:102DCC001E00F007803C01E00F007803C01E00F0ED
:102DDC0007803C01E00F80EE0E3FE07C006006C0F7
:102DEC001DC031806301C70306060C1C1C30186023
:102DFC0031C073006600DC01F001E003C00700E0A5
:102E0C00301D80E0760781D81E06707C18C1B0E3B7
:102E1C000CC38C330C38C6306718C198670661D860
:102E2C001D83603C0D80F03E03C0700F01C018077D
:102E3C0000700E6038E060E1C0C301CC01F801E025
:102E4C00038007801F003300E70386060E1C0E70FC
:102E5C000CC01C6006700E301C38181C380C300E60
:102E6C0070066003C003C0018001800180018001F5
:102E7C0080018001800180FFFFFFC00E00E00E008A
:102E8C006007007007003003803803801801C01CF5
:102E9C0000FFFFFFC0FFCCCCCCCCCCCCCCCCCCCF6F
:102EAC00F08181020604081810206040818102061E
:102EBC0004FF3333333333333333333FF00C0E05EA
:102ECC0086C321198C83C180FFFEE38C303F07F849
:102EDC00E1CC0C00C01C3FCF8CC0CC0CE3C7EF3C4A
:102EEC0070C00C00C00C00C00CF8DFCF0EE07C03EF
:102EFC00C03C03C03C03E06F0EDFCCF81F0FE71B98
:102F0C0083C0300C0300C038371CFE1F0000600C5F
:102F1C00018030063CCFFB8FE0F80F01E03C0780CE
:102F2C00F83B8F3F63CC1F07F1C7703C07FFFFFED8
:102F3C0000C01C0DC31FE1F03BD8C67FEC6318C664
:102F4C00318C63001E67FDC7F07C0780F01E03C048
:102F5C007C1DC79FB1E600C03E0E7FC7E0C0300CA1
:102F6C000300C033CDFBC7E0F03C0F03C0F03C0FB7
:102F7C0003C0F030F03FFFFFF03300033333333343
:102F8C003333333FE0C0180300600C018330C6308C
:102F9C00CC1B83F0770C618E30E60CC1D818FFFF88
:102FAC00FFFFF0CF1F6FDFFC78FC183C0C1E060FE8
:102FBC0003078183C0C1E060F03078183C0C18CF57
:102FCC0037EF1F83C0F03C0F03C0F03C0F03C0C0B1
:102FDC001F07F1C7707C0780F01E03C07C1DC71F44
:102FEC00C1F0CF8DFCF0EE06C03C03C03C03C03EEC
:102FFC0007F0EFFCCF8C00C00C00C0001E67FDC7B3
:10300C00F07C0780F01E03C07C1DC79FF1E600C05A
:10301C0018030060CF7F38C30C30C30C30C03E1F88
:10302C00EE1B00C03C07F03E01F03E1DFE3E00636F
:10303C0019FFB18C6318C631E7C0F03C0F03C0F028
:10304C003C0F03C0F07E3DFB3CC0E0660660670CA5
:10305C0030C30C3981981981F00F00E00E00C1C10A
:10306C00B0E1D870CC2C6636319B18CD98646C16B8
:10307C00360F1A078F038380C1C060EE18C60CC1CF
:10308C00F01C0180781B0330C7306606E06C0D83A2
:10309C0038630C630E60CC1B03603C0700E0180324
:1030AC0000E0780E00FFFFF0180C070381C06030C1
:1030BC00180E03FFFFC019CC6318C631998618C6C9
:1030CC00318C631C60FFFFFFFFFFFCC718C6318CFF
:1030DC00630C33318C6318C67300703E09E41F0314
:1030EC0080000000000000000A000100000005192B
:1030FC000C04E80010000D091102E7001F00141861
:10310C001300E9005B00131D1300E700A0001D195C
:10311C001F01E800FB0016191902E800400105091F
:10312C000902E700460109210C01E7006C010921A5
:10313C000C01E70092010C0B0E00E700A30110102C
:10314C001402F100C301050B0902FC00CA010904B9
:10315C000C01F600CF0105050902FC00D301091989
:10316C000A00E800F00111191301E80026020A19FF
:10317C001303E800460211191301E8007C0211192F
:10318C001301E800B20210191302E800E40211194D
:10319C001301E8001A0312191301E8005303111963
:1031AC001301E800890311191301E800BF03111979
:1031BC001301E800F50305120902EF0001040518DC
:1031CC000902EF00100412111401F0003704110C65
:1031DC001402F300510412111401F0007804121AB5
:1031EC001502E700B304201F2201E7002F05181A6F
:1031FC001800E7007D05141A1903E700BE05171A1D
:10320C001901E7000906151A1903E7004E06131AEF
:10321C001703E7008C06111A1603E700C406181AE8
:10322C001B01E7001207141A1A03E7005307051ACB
:10323C000B03E7006407101A1401E7009807161A2D
:10324C001903E700E007111A1603E7001808181A0B
:10325C001E03E7006608141A1A03E700A708191AD8
:10326C001B01E700F908131A1803E7003709191BAB
:10327C001B01E7008C09151A1903E700D109141A70
:10328C001802E700120A131A1702E700500A141A60
:10329C001A03E700910A161A1701E700D90A201A37
:1032AC002201E700410B161A1801E700890B151AC9
:1032BC001601E700CE0B131A1501E7000C0C0821C0
:1032CC000C02E7002D0C0A190A00E8004D0C08212D
:1032DC000C01E7006E0C100F1402E9008C0C1503A6
:1032EC0013FF0500940C07050901E700990C121354
:1032FC001401EE00C40C121A1602E700FF0C111395
:10330C001401EE00280D131A1601E700660D1213B6
:10331C001401EE00910D0A1A0C01E700B20D121AFD
:10332C001501EE00ED0D111A1502E700250E051A18
:10333C000A02E700360E07210A00E700530E111AA5
:10334C001402E7008B0E051A0902E7009C0E1B13F2
:10335C001F02EE00DD0E11131502EE00060F131303
:10336C001501EE00340F121A1602EE006F0F131A2D
:10337C001601EE00AD0F0B130E02EE00C80F111369
:10338C001301EE00F10F09170C01EA000B101113D9
:10339C001502EE00341013131300EE0062101B1311
:1033AC001B00EE00A31012131301EE00CE10131A23
:1033BC001300EE000C1110131201EE003211092152
:1033CC000E01E700581103210A04E70065110921D9
:1033DC000E03E7008B110F061201F600FFFFFFFF33
:1033EC00FFFFFEE739CE73800FFFFFF8F8FFC7FE33
:1033FC003FF1FF8FFC7DC1CE0E707003C3803C7813
:10340C0003C7803878078707FFFF7FFFF7FFFF7F31
:10341C00FFF0F0E00F0E00F1E00F1E00E1E0FFFF07
:10342C00CFFFFCFFFFCFFFFC1C3C03C3803C7803A9
:10343C00C78038780387800060007F803FFC0FFFD7
:10344C00C3FFFCFCDF9F19FBC31F7863EF8C01FDEE
:10345C00801FF001FFC01FFE007FE003FE0067E04D
:10346C000C7FE18FFC31FFC63EFCDF9FFFF1FFFCC0
:10347C000FFF007F80018000300006000F001C0150
:10348C00FE00E01FF80E00FFC0700F0F0700703831
:10349C00380381C3801C0E3C00F0F1C003FF1C00FC
:1034AC001FF8E0007F8E0000F070F800071FF0009E
:1034BC0039FFC0038FFE001CF07801C701C00C3827
:1034CC000E00E1C070060F0780703FF80701FFC0C7
:1034DC003807FC03800F8001F0001FE000FFC003E1
:1034EC00FF801F1E007C7801F1E007E7800FBC0015
:1034FC001FE0003F0001F8001FF0F0FFE3C7E7CF2B
:10350C003F0FF8F83FE3E07F8F80FC3F03F07E3FF6
:10351C00E1FFFF83FFFF07FE7E07F0FCFFFFFFFDCF
:10352C00CE70078783C3C1E1E0F078783C1E1E0F94
:10353C000783C1E0F0783C1E0F0381E0F0781E0F8A
:10354C000381E0703C0E0780F0381E0783C0F078D2
:10355C003C0F0783C0F0783C1E0F0783C1E0F07866
:10356C00783C1E0F0F078783C1C1E0E0F000060016
:10357C006006076E7FE3FC0F01F81F839C1080032D
:10358C00C003C003C003C003C003C0FFFFFFFFFFA5
:10359C00FFFFFF03C003C003C003C003C003C0FF91
:1035AC00FFFF8C6337B0FFFFFFFFF0FFFFFF8001D1
:1035BC0081C0C0607038180C0E06030181C0C06059
:1035CC003038180C0E07030181C0C00007F00FFE45
:1035DC000FFF87FFC7E3F3E0F9F07DF01FF80FFC56
:1035EC0007FE03FF01FF80FFC07FE03FF01FF80FD5
:1035FC00FC07DF07CF83E7E3F1FFF0FFF83FF807A5
:10360C00F00001C0F03C1F1FFFFFFFFF07C1F07C63
:10361C001F07C1F07C1F07C1F07C1F07C1F07C1F86
:10362C0007C007F00FFE0FFF8FFFE7E3F7E0FFE0A7
:10363C003FF01FF80F8007C007E003E003F003F032
:10364C0007F007F007E007E007C007C003E003FF3F
:10365C00FDFFFEFFFF7FFF8007E00FFC0FFF0FFF5A
:10366C00CFC3F7C0FBE07DF03E001F001F000F80B2
:10367C003F801FC00FF000FC003F000FFC07FE0353
:10368C00FF83F7C3F3FFF8FFF83FF807F00000FCE7
:10369C0000FC01FC01FC03FC077C077C0E7C0E7C0F
:1036AC001C7C187C387C707C607CE07CFFFFFFFF0E
:1036BC00FFFFFFFF007C007C007C007C007C007C1A
:1036CC001FFF0FFF8FFFC7FFE3C001E000E000709A
:1036DC000079F03FFE1FFF8FFFE7C3F000FC003EB8
:1036EC00001F000F8007FE03FF03FFC3F3FFF1FF72
:1036FC00F83FF007E00003F803FF81FFF0FFFE3E08
:10370C001F9F03E7C003E000F8F83EFF8FFFF3FFB5
:10371C00FEFE1FBF03FF807FE01FF807FE01F7804E
:10372C007DF03E7E1F8FFFC1FFF03FF003F000FFE6
:10373C00FFFFFFFFFFFFFFF000F000F800F800783C
:10374C00007C003C003E001E001F000F000F800795
:10375C00C003C003E001F000F80078007C003E00DC
:10376C001F000F800007E007FC0FFF07FFC7C3F324
:10377C00C0F9E03CF01E781F1E1F07FF01FF03FF7E
:10378C00E3F1F9F07DF01FF80FFC07FE03FF83F760
:10379C00C3F3FFF8FFF83FF807F00007E00FFC0F4A
:1037AC00FF0FFFC7E3F7E0FBE03DF01FF80FFC074E
:1037BC00FE03FF83F7E3FBFFFCFFFE3FDF07CF8039
:1037CC00078003DF03E7C3E3FFF0FFF03FF007E000
:1037DC0000FFFFFF80000000007FFFFFC0FFFFFF26
:1037EC0080000000007FFFFFC6339BD80000C000A4
:1037FC00F001FC03FF03FF07FE0FFC03F800F000D1
:10380C003F800FFC007FE007FF003FF001FC001F32
:10381C000000C0FFFFFFFFFFFFFFFFF000000000F4
:10382C0000000000FFFFFFFFFFFFFFFFF0C0003CA8
:10383C00000FE003FF003FF001FF800FFC007F0052
:10384C0003C007F00FFC1FF83FF83FF00FE003C078
:10385C0000C0000007F007FF03FFF1FFFC7E3FBF35
:10386C0003FF807FE01FF807C003F001FC00FE009F
:10387C007F003F801FC007C003E000F0003C000049
:10388C0000000000F8003E000F8003E000F800008C
:10389C0007FC00003FFF0000FFFFC001F807F0032A
:1038AC00E001F80780007C0F00003C1E03E39E3C07
:1038BC000FF78E381FFF0E783E1F0770380F0770FA
:1038CC00780F07E0700E07E0700E07E0E00E07E0DF
:1038DC00E01E0FE0E01C0EE0E03C1EE0F03C3CF093
:1038EC00F0FC7C707FFFF8783FCFF03C1F07C03EA8
:1038FC000000001F0000000FC0010007F00F0003C4
:10390C00FFFF0000FFFF00001FF800007E00007F9B
:10391C0000007F0000FF0000FF8001FF8001FF809E
:10392C0001F7C003E7C003E7C003E3E007C3E00708
:10393C00C3E007C1F00F81F00F81F00FFFF81FFFFC
:10394C00F81FFFFC1FFFFC3E007C3E007E3E003E4D
:10395C007C003E7C003F7C001FFFFC0FFFF0FFFF54
:10396C008FFFFCF807EF803EF803EF803EF803EF83
:10397C00803EF807CFFFF8FFFF0FFFF8FFFFCF8067
:10398C007EF801EF801FF801FF801FF801FF803ED9
:10399C00FFFFEFFFFCFFFF8FFFE000FF0007FF8042
:1039AC003FFFC0FFFFC3F81F87E01F9F801F3E0033
:1039BC001F7C003FF00003E00007C0000F80001FD9
:1039CC0000003E00007C0000F80000F8007DF000D4
:1039DC00FBF003F3F00FC7F03F87FFFE07FFF80380
:1039EC00FFC001FE00FFFC07FFF83FFFE1FFFF8F68
:1039FC0080FE7C01F3E007DF003EF801F7C007FE14
:103A0C00003FF001FF800FFC007FE003FF001FF878
:103A1C0000FFC00FFE007DF003EF803E7C07F3FF3C
:103A2C00FF1FFFF0FFFF07FFE000FFFFDFFFFBFFC3
:103A3C00FF7FFFEF8001F0003E0007C000F8001F81
:103A4C000003E0007FFFCFFFF9FFFF3FFFE7C0005F
:103A5C00F8001F0003E0007C000F8001F0003FFF26
:103A6C00FFFFFFFFFFFFFFFCFFFFFFFFFFFFFFFF5D
:103A7C00FF8007C003E001F000F8007C003E001F4F
:103A8C00FFEFFFF7FFFBFFFDF000F8007C003E00AE
:103A9C001F000F8007C003E001F000F8007C00005D
:103AAC00007F8003FFE007FFF80FFFFC1FC0FE3F05
:103ABC00007E7E003F7C001F7C0000F80000F800B8
:103ACC0000F80000F803FFF803FFF803FFF803FF0A
:103ADC00FC000F7C001F7C001F7E003F3F007F1FFF
:103AEC00C1FF0FFFFF07FFE703FFC700FF07F80148
:103AFC00FF801FF801FF801FF801FF801FF801FFF6
:103B0C00801FF801FF801FFFFFFFFFFFFFFFFFFF7C
:103B1C00FFF801FF801FF801FF801FF801FF801FD5
:103B2C00F801FF801FF801FF801FF801FF801FFFC5
:103B3C00FFFFFFFFFFFFFFFFFFFFFFFFFFFFFFC0C8
:103B4C00001F001F001F001F001F001F001F001F71
:103B5C00001F001F001F001F001F001F001F001F61
:103B6C00F81FF81FF81FF81FF81FFC3F7FFE3FFCE3
:103B7C001FF807E0F801FBE00FCF807E3E03F0F862
:103B8C001F83E0FC0F87E03E3F00F8F803E7E00FEF
:103B9C00BF003FF800FFF003FFE00FFF803FBF00C6
:103BAC00FC7E03E0FC0F81F83E07E0F80FC3E01F3A
:103BBC008F807F3E00FCF801FBE003F0F8007C00F6
:103BCC003E001F000F8007C003E001F000F8007CEE
:103BDC00003E001F000F8007C003E001F000F8005A
:103BEC007C003E001F000F8007C003FFFFFFFFFF9C
:103BFC00FFFFFFC0FF00FFFF00FFFF00FFFF01FF03
:103C0C00FF81FFFF81FFFF81FFFF81FFFBC3DFFB14
:103C1C00C3DFFBC3DFFBC3DFF9C7DFF9E79FF9E7BE
:103C2C009FF9E79FF9E79FF8FF1FF8FF1FF8FF1FA9
:103C3C00F8FF1FF87F1FF87E1FF87E1FF87E1FF815
:103C4C003E1FF801FFC01FFE01FFE01FFF01FFF048
:103C5C001FFF81FFF81FFFC1FFBC1FFBE1FF9F1F70
:103C6C00F9F1FF8F9FF879FF87DFF83DFF83FFF8AD
:103C7C001FFF81FFF80FFF80FFF807FF803FF8035D
:103C8C00FF801F007F0001FFF001FFFC03FFFF011D
:103C9C00FC1FC1F803F1F800FCF8003E7C001F7C0F
:103CAC000007FE0003FF0001FF8000FFC0007FE063
:103CBC00003FF0001FF8000FBE000F9F0007CFC0A1
:103CCC0007E3F007E0FE0FE07FFFE00FFFE003FFEC
:103CDC00E0003F8000FFFC1FFFE3FFFE7FFFEF8053
:103CEC00FFF00FFE00FFC01FF803FF007FE01FFC7A
:103CFC0007EFFFFDFFFF3FFFC7FFE0F8001F0003CA
:103D0C00E0007C000F8001F0003E0007C000F800CE
:103D1C001F0000007F0001FFF001FFFC03FFFF010B
:103D2C00FC1FC1F803F1F800FCF8003E7C001F7C7E
:103D3C000007FE0003FF0001FF8000FFC0007FE0D2
:103D4C00003FF0001FF8010FBE01CF9F01FFCFC055
:103D5C007FE3F01FE0FE0FF07FFFF80FFFFE03FF85
:103D6C00EF803FC380000080FFFF07FFFE3FFFF99D
:103D7C00FFFFCF803F7C00FBE007DF003EF801F740
:103D8C00C00F3E00F9FFFF8FFFF87FFFC3FFFF1F3F
:103D9C0000FCF803E7C01F3E00F9F007CF803E7C23
:103DAC0001F3E00F9F007CF803F7C00FC007F80188
:103DBC00FFF03FFF87FFFC7E0FCFC07EF803EF8044
:103DCC003EF8000FC000FF0007FFC03FFF81FFFC63
:103DDC0003FFE001FF0003F0001FF801FF801FFC50
:103DEC0003FFE07E7FFFE3FFFC1FFF003FC0FFFFF0
:103DFC00FFFFFFFFFFFFFFF01F0003E0007C000F41
:103E0C008001F0003E0007C000F8001F0003E00036
:103E1C007C000F8001F0003E0007C000F8001F007E
:103E2C0003E0007C000F8001F0003E00F801FF80F1
:103E3C001FF801FF801FF801FF801FF801FF801F92
:103E4C00F801FF801FF801FF801FF801FF801FF8A9
:103E5C0001FF801FF801FF801FF801FF801F7C030A
:103E6C00E7E07E3FFFC3FFFC0FFF003FC0F800FB05
:103E7C00E003E7C01F9F007C7C01F0F807C3E03E25
:103E8C000F80F81E03E07C1F01F07C03C1F00F874C
:103E9C00803E3E00F8F801E3C007CF001F7C003DD8
:103EAC00E000FF8003FE0007F0001FC0007F000051
:103EBC00F80003E000F807C03FF807E03EFC07E01D
:103ECC003E7C0FE03E7C0FE07E7C0FE07C7C0FF0B4
:103EDC007C3E0FF07C3E1EF0783E1E70F81E1E706D
:103EEC00F81E1E78F81F1E78F01F3C78F00F3C3936
:103EFC00F00F3C3DF00F3C3DE00FBC3DE007F83DC2
:103F0C00E007F81FE007F81FC003F81FC003F81FF5
:103F1C00C003F00F8003F00F8001F00F80FE01F959
:103F2C00F807E3F03F0FC0F81F87E07E3F00FCFC72
:103F3C0001F7E007FF000FFC003FE0007F0000FCF2
:103F4C000007F0001FE000FF8003FF001F7E00FC55
:103F5C00F803E3F01F87C07C1F83F03F1F80FC7EBB
:103F6C0001FBF007F0FC01FFE00F9F00FCFC07C316
:103F7C00E07E1F83E07C1F03F1F00F8F807EF80141
:103F8C00F7C00FFC003FE000FE0007F0001F000030
:103F9C00F80007C0003E0001F0000F80007C000319
:103FAC00E0001F0000F80007C000FFFFFFFFFFFF4D
:103FBC00FFFFFFF0007E001F8007E000FC003F00C9
:103FCC000FC003F8007E001F8007E001FC003F00DB
:103FDC000FC003F0007E001F8007E001FC003FFFD4
:103FEC00FFFFFFFFFFFFFFFCFFFFFFFFF8F8F8F8F4
:103FFC00F8F8F8F8F8F8F8F8F8F8F8F8F8F8F8F835
:10400C00F8F8F8F8F8FFFFFFFFE038060180700CB5
:10401C000300E0180601C0300C0300E0180601C0D4
:10402C00300C038060180701C0FFFFFFFF1F1F1F2C
:10403C001F1F1F1F1F1F1F1F1F1F1F1F1F1F1F1F84
:10404C001F1F1F1F1F1FFFFFFFFF03E007E007E0FD
:10405C000FF00FF00F781E781E783C3C3C3C3C1E59
:10406C00781E781E700FF00FFFFFFFFFFFFFFFFEA3
:10407C00F8F0F0E0E007F807FF83FFF1FFFE7C1F8C
:10408C00BE03E000F801FE0FFF8FFFE7F8FBF03EE8
:10409C00F80FBE07EFC3FBFFFE7FFF8FFBF1F8FCB1
:1040AC00F8003E000F8003E000F8003E000F800394
:1040BC00E7E0FBFC3FFFCFFFF3F87EFC0FBF03FFF5
:1040CC00807FE01FF807FE01FF807FF03FFC0FBFF1
:1040DC0087EFFFF3FFFCFBFC3E7E0003F007FE0FB7
:1040EC00FF87FFE7E1FBE07FE03FF000F8007C009A
:1040FC003E001F000F80FBE07DF87E7FFE3FFE0F31
:10410C00FE00FC000003E0007C000F8001F0003E8C
:10411C000007C000F81F1F0FFBE3FFFCFFFFBF8F62
:10412C00F7C07FF80FFE00FFC01FF803FF007FE011
:10413C000FFE03F7C07EFC3FCFFFF8FFFF0FFBE045
:10414C00FC7C07E007FE03FFE0FFF87E1F1F03CF98
:10415C0080FBE01EFFFFBFFFEFFFFBE000F8003F1E
:10416C0003E7E1F9FFFC3FFE07FF007F000FC7F3F9
:10417C00FCFF3E0F83E3FEFFBFE3E0F83E0F83E05E
:10418C00F83E0F83E0F83E0F83E0F83E0F8007C740
:10419C00C3FDF3FFFCFFFF7E1FDF03FFC0FFE01F2B
:1041AC00F807FE01FF807FE01FFC0FDF03F7E1FD46
:1041BC00FFFF3FFFC7FDF07C7C001F0007FF03F7EC
:1041CC00E1F9FFFC3FFE01FE00F8007C003E001F01
:1041DC00000F8007C003E001F1F0FBFE7FFFBFFF83
:1041EC00DFC3FFC0FFC07FE03FF01FF80FFC07FEEE
:1041FC0003FF01FF80FFC07FE03FF01FF80FFC07BB
:10420C00C0FFFFF0001FFFFFFFFFFFFFFFFFFFFFDF
:10421C00FFC03E7CF9F000001F3E7CF9F3E7CF9F16
:10422C003E7CF9F3E7CF9F3E7CF9F3FFFFFEF8F8F5
:10423C00007C003E001F000F8007C003E001F03E31
:10424C00F83E7C3F3E3F1F3F0F9F07DF03FF81FF80
:10425C00C0FFF07FF83F7E1F1F0F87C7C3F3E0F945
:10426C00F07EF81F7C0FC0FFFFFFFFFFFFFFFFFF7B
:10427C00FFFFFFFFFFFFFFC0F8F83F1F7F9FF3FF1B
:10428C00FFFF7FFFFFFFC3F87FF83F07FE07C0FF6C
:10429C00C0F81FF81F03FF03E07FE07C0FFC0F81C9
:1042AC00FF81F03FF03E07FE07C0FFC0F81FF81F6C
:1042BC0003FF03E07FE07C0F80F8F87DFF3FFFDF1A
:1042CC00FFEFE1FFE07FE03FF01FF80FFC07FE037C
:1042DC00FF01FF80FFC07FE03FF01FF80FFC07FEDF
:1042EC0003E003F801FFC07FFC1FFFC7F0FCF80FD1
:1042FC00BF01FFC01FF803FF007FE00FFC01FFC0F0
:10430C007EF80F9F87F1FFFC1FFF01FFC00FE0003D
:10431C00F8F83EFF8FFFF3FFFCFE1FBF03EFC0FF5B
:10432C00E01FF807FE01FF807FE01FFC0FFF03EF8B
:10433C00E1FBFFFCFFFF3EFF0F8F83E000F8003E28
:10434C00000F8003E000F8003E000007E3E1FF7C73
:10435C007FFF9FFFF7F1FEF80FFF01FFC01FF8036F
:10436C00FF007FE00FFC01FFC07EF80FDF83F9FF39
:10437C00FF3FFFE1FF7C1F8F8001F0003E0007C074
:10438C0000F8001F0003E0007CF8FF7FFFFFFFE157
:10439C00F83E07C0F81F03E07C0F81F03E07C0F821
:1043AC001F03E00007F00FFE0FFF87FFE7E1F3E0CC
:1043BC0079F800FF803FFC1FFF83FFC03FF001FF37
:1043CC00C07DF07EFFFE3FFF0FFF01FE003E1F0F82
:1043DC0087C3E7FFFFFF3E1F0F87C3E1F0F87C3E6A
:1043EC001F0F87F3F8FC3EF80FFC07FE03FF01FFDD
:1043FC0080FFC07FE03FF01FF80FFC07FE03FF01BA
:10440C00FF80FFC0FFF0FFFFFF7FFF9FF7C7E3E0D8
:10441C007C07CF80F9F01F1F07C3E0F87C1F0783D0
:10442C00C0F8F81F1F01E3C03E7807DF007BC00F08
:10443C00F801FF001FC003F8007F0007C000FC1F3D
:10444C0003EF83E07DF07E1F3E0FC3E3C3F87C7C5B
:10445C007F0F0F8FF3E1F1DE7C1E7BCF83EF39E012
:10446C007DE73C07B8FF80F71FE01FE3FC03FC3F30
:10447C00803F07F007E0FC00FC1F800F83F000FC7E
:10448C001F9F07E7E3F0F8F81F7E07DF00FF801F90
:10449C00E007F000F8007F003FE00FF807DF03F7BC
:1044AC00E0F8F87E3F1F07EFC0F87C03EF80F9F8C7
:1044BC001F1F03E3E0F87C1F07C3E0F8780F1F0110
:1044CC00F3C03E7803DF007FC00FF800FF001FC071
:1044DC0001F8003F0007C000F8001E0007C007F8F5
:1044EC0000FE001F8003E0007FFE7FFE7FFE7FFE4C
:1044FC00007E00FC01F803F003F007E00FC01F8002
:10450C003F007E00FE00FFFFFFFFFFFFFFFF07875E
:10451C00C7E3F1E0F0783C1E0F0783C1E0F0F9F837
:10452C00F07E0F83C1E0F0783C1E0F0783C1E0FCE6
:10453C007E1F0780FFFFFFFFFFFFFFFFFFFFFFFF57
:10454C00E0F07C3E1F83C1E0F0783C1E0F0783C176
:10455C00E0F07C1F83C7E7C3C1E0F0783C1E0F0777
:10456C0083C7E3E1F0F0003C00FE0FFE1E1FFC0FC2
:10457C00C00F000000000101110000000100021634
:10458C000602EB0007000101110000000800010108
:10459C001100000009000101110000000A000101D6
:1045AC00110000000B000101110000000C000101C2
:1045BC00110000000D0007200602E600290007206C
:1045CC0005FDE60045000101110000004600010157
:1045DC0011000000470002050501FF004900010120
:1045EC00110000004A000201040100004B0001010F
:1045FC00110000004C0015161701EB008600081680
:10460C000A00EB009C0016161801EB00D9001616D8
:10461C001801EB00160115161701EB0050011716C7
:10462C001901EB00900117161901EB00D0011616B9
:10463C001701EB000D0216161801EB004A021616B4
:10464C001801EB00870202160401EB008D02021820
:10465C000401EB009302010111000000940201011E
:10466C0011000000950201011100000096021516C0
:10467C001701EB00D002010111000000D102181645
:10468C001A01EB00130317161901EB00530317164D
:10469C001901EB00930317161901EB00D30317163E
:1046AC001A01EB00130417161901EB00530417162B
:1046BC001901EB00930417161A01EB00D304021630
:1046CC000602EB00D90408160900EB00EF041616DD
:1046DC001902EB002C0513161401EB0061051916D9
:1046EC001B01EB00A60519161B01EB00EB051716B9
:1046FC001901EB002B0616161902EB0068061716AB
:10470C001901EB00A80617161901EB00E80617169D
:10471C001901EB00280716161600EB006507161694
:10472C001801EB00A20718151901EC00E10731166E
:10473C003100EB00680818161901EB00AA081816CE
:10474C001900EB00EC0817161901EB002C090101FC
:10475C00110000002D090101110000002E090101BA
:10476C00110000002F0901011100000030090101A6
:10477C001100000031090101110000003209181666
:10478C001A01EB00740917161901EB00B40917167E
:10479C001901EB00F40917161901EB00340A17166E
:1047AC001A01EB00740A17161901EB00B40A17165C
:1047BC001901EB00F40A17161A01EB00340B021660
:1047CC000602EB003A0B08160900EB00500B16160C
:1047DC001902EB008D0B13161401EB00C20B19160A
:1047EC001B01EB00070C19161B01EB004C0C1716E8
:1047FC001901EB008C0C16161902EB00C90C1716DC
:10480C001901EB00090D17161901EB00490D1716CC
:10481C001901EB00890D16161600EB00C60D1616C5
:10482C001801EB00030E18151901EC00420E31169D
:10483C003100EB00C90E18161901EB000B0F1816FE
:10484C001900EB004D0F17161901EB008D0F01012C
:10485C00110000008E0F0101110000008F0F0101EB
:10486C0011000000900F01011100000000FFFFFF7C
:10487C00FFFF300000000000001C61860C18306047
:10488C00C183060C183060C183060C183060C183DC
:10489C00060C0C0C0FF030303060C183060C183055
:1048AC0060C183060C183060C183060C1830618619
:1048BC00780000FFC000C0000FFF81800718000CBB
:1048CC00C0006C0001E0000F0000780003C0001E67
:1048DC000000F0000780003C0001E0000F000078B1
:1048EC000003C0001E0000D8000CC00063000E07BF
:1048FC00FFC0FE03030303030303030303030303C8
:10490C0003030303030303030FFFE0E000C60001EE
:10491C00980003C0000F00003C0000C00003000022
:10492C000C0000300000C000060000303FFF838008
:10493C0000180000E0000300000C0000300000C074
:10494C000003FFFFF01FFFE0C000C60001B0000332
:10495C00C0000F0000300000C00003000018000071
:10496C00E07FFE00001C0000180000300000F0008A
:10497C0003C0000F00003C00019800063000307F9F
:10498C00FF80C0001E0000F0000780003C0001E02A
:10499C00000F0000780003C0001E0000F00006C0ED
:1049AC00003300018FFFFC000060000300001800C2
:1049BC0000C00006000030000180000CFFFFFF80EB
:1049CC00000300000600000C00001800003000007E
:1049DC00600000C00001FFFFE0000060000060000C
:1049EC0000600000C00001C00003C0000780000F81
:1049FC0080001B000063000181FFFE001FFFE060D0
:104A0C00007180003600006C0000780000F000019E
:104A1C00E00001C00001FFFFC300006600006C0055
:104A2C0000D80000F00001E00003C0000780000F78
:104A3C00000033000063000183FFFC00FFFFF00067
:104A4C000060000380001E0000F0000380001C00CA
:104A5C0000E000070000380001C0000E00007000EC
:104A6C0001800006000018000060000180000600B4
:104A7C000018000060000180000FFF8060018300BF
:104A8C0003180006600019800066000198000630CB
:104A9C000030E001C1FFFE0E001E60001B80007C98
:104AAC000000F00003C0000F00003C0000D800061E
:104ABC003800303FFF000FFFE0E000C60001980017
:104ACC0003C0000F00003C0000F00003C0000F000A
:104ADC0000360000D8000338000C3FFFF00000F057
:104AEC000003C0000F0000360000D8000630003074
:104AFC003FFF80C00000000030C000000003FF003A
:104B0C0000000FFFC1800318000CC0003C0001E046
:104B1C00000F00006000030000180000C000060039
:104B2C00006000060007E000E0000C0000600006DA
:104B3C000000300001800000000060000000380020
:104B4C00002C0000640000460000C200008300013D
:104B5C0081000181800300800300C00600C00600B4
:104B6C00600C00601C00301FFFF030001830000893
:104B7C0060000C600006C00006C00003800003FF4C
:104B8C00FFE180007300003600003C00007800005C
:104B9C00F00001E00003C0000D80003BFFFFC600E9
:104BAC0001CC0000D80001F00001E00003C00007B8
:104BBC0080000F00001E00006C00019FFFFE000F24
:104BCC00FFE060003180003300006C0000780000D2
:104BDC00F00001E00000C0000180000300000600AE
:104BEC00000C0000180000300000600003C000073B
:104BFC0080000D800033000063000181FFFC00FF8A
:104C0C00FFE180007300003600006C0000780000AB
:104C1C00F00001E00003C0000780000F00001E0040
:104C2C00003C0000780000F00001E00003C0000729
:104C3C0080000F00003600006C0001987FFC007FA4
:104C4C00FFFF80000300000600000C0000180000AD
:104C5C00300000600000C00001800003FFFF8600F0
:104C6C00000C0000180000300000600000C00001C3
:104C7C0080000300000600000C00000FFFFFC07F47
:104C8C00FFFF80000300000600000C00001800006D
:104C9C00300000600000C00001800003FFFF8600B0
:104CAC00000C0000180000300000600000C0000183
:104CBC0080000300000600000C0000180000000F2C
:104CCC00FFE060003180003300006C0000780000D1
:104CDC00F00001E00000C0000180000301FFFE00B5
:104CEC00003C0000780000F00001E00003C0000769
:104CFC0080000D800033000063000381FFFC00C0C6
:104D0C00000780000F00001E00003C00007800002F
:104D1C00F00001E00003C0000780000F00001FFF3F
:104D2C00FFFC0000780000F00001E00003C0000769
:104D3C0080000F00001E00003C0000780000C0FF47
:104D4C00FFFFFFFFF003030303030303030303034A
:104D5C000303030303030306061CF0C00003000057
:104D6C003C0000F00006C000330001CC000630000F
:104D7C0030C00183000C0DFFE03001C0C001830086
:104D8C00020C000C300018C000230000CC0001B055
:104D9C000006C0000F000010C000180003000060E7
:104DAC00000C000180003000060000C00018000359
:104DBC00000060000C000180003000060000C00004
:104DCC00180001800030000300001FFFC0600003CA
:104DDC00680002F600037900013C40011E30018F8F
:104DEC00080087820083C180C1E04040F010407809
:104DFC000C603C02201E01B00F007007800003C045
:104E0C000001E00000F000007800003C00001E00F3
:104E1C00000C600001F80000F600007980003C6096
:104E2C00001E18000F060007818003C06001E01807
:104E3C0000F006007801803C00601E00180F000690
:104E4C0007800183C00061E00018F00006780001C3
:104E5C00BC0000FE0000380FFFE060003180003322
:104E6C0000006C0000780000F00001E00003C000BE
:104E7C000780000F00001E00003C0000780000F0CE
:104E8C000001E00003C0000780000D80003300002B
:104E9C0063000181FFFC00FFFF8300038C0003B063
:104EAC000006C0000F00003C0000F00003C0000F23
:104EBC0000003C0001B0000EC000F3FFFF0C00002E
:104ECC00300000C0000300000C0000300000C000E7
:104EDC00030000000FFFE060007180003300006CE5
:104EEC000000780000F00001E00003C00007800023
:104EFC000F00001E00003C0000780000F00001E0F4
:104F0C000003C000078000CD8001FB0001E300011D
:104F1C00C1FFFEC0FFFFE180003300003600002C13
:104F2C000000780000F00001E00003C000078000E2
:104F3C000F00001600006C00019FFFFC3000386071
:104F4C000030C0003180007300006600006C00006F
:104F5C00780000C01FFFE060007180003600006C1C
:104F6C000000780000F00001E0000060000060002C
:104F7C00007FFF800001C00000C00001B00001E014
:104F8C000003C0000780000D800033000063800325
:104F9C0081FFFC00FFFFF800C0000300000C0000C4
:104FAC00300000C0000300000C0000300000C00006
:104FBC000300000C0000300000C0000300000C00D7
:104FCC0000300000C0000300000C0000300000C0E6
:104FDC0000C0000F00003C0000F00003C0000F00F8
:104FEC00003C0000F00003C0000F00003C0000F08B
:104FFC000003C0000F00003C0000F00003C0000FD5
:10500C0000003600019800063800703FFF00800059
:10501C0003C0000640000660000C20000C30001895
:10502C001000181800300C00300C006006006006F0
:10503C0000C00300C003018001818001830000C314
:10504C000000C600006400006C0000380000000185
:10505C00C00000600000B00000D80000C80000CC08
:10506C00000046000063000061000061800020C069
:10507C0000306000302000303000101800180C0098
:10508C001804001806000803000C01800C00800CAA
:10509C000040040060060030060010060008060000
:1050AC000C030006030002030001030001818000D1
:1050BC00C1800041800031800030C00018C0000861
:1050CC00C00006C00006400003400001600000E084
:1050DC000000E000800002E0000670000C38003890
:1050EC001C00700E00E00701C003838000C70000A5
:1050FC006E00003C00003800006C0000C60001830C
:10510C00000301800600E00C007038003870001CB1
:10511C00E0000EC00006C00003E0000770000E386F
:10512C00001C1800380C00300600600300C0018120
:10513C008000C300006600003C000018000018004E
:10514C0000180000180000180000180000180000DB
:10515C001800001800001800FFFFFC00000C0000F5
:10516C00380000F00003C0000E0000780001E000E1
:10517C000780001C0000F00003C0000F0000380086
:10518C0001E0000780001C0000700003C000070055
:10519C00000C00000FFFFFC00000000000000038F2
:1051AC0000002C0000640000460000C200008300D8
:1051BC000181000181800300800300C00600C0064D
:1051CC0000600C00601C00301FFFF0300018300035
:1051DC000860000C600006C00006C00003800003DD
:1051EC00FFFFE180007300003600003C00007800F7
:1051FC0000F00001E00003C0000D80003BFFFFC683
:10520C000001CC0000D80001F00001E00003C00058
:10521C000780000F00001E00006C00019FFFFE00C5
:10522C000FFFE060003180003300006C000078005C
:10523C0000F00001E00000C0000180000300000647
:10524C0000000C0000180000300000600003C000DB
:10525C000780000D800033000063000181FFFC001B
:10526C00FFFFE180007300003600006C0000780046
:10527C0000F00001E00003C0000780000F00001EDA
:10528C0000003C0000780000F00001E00003C000CA
:10529C000780000F00003600006C0001987FFC00B6
:1052AC007FFFFF80000300000600000C00001800C8
:1052BC0000300000600000C00001800003FFFF868A
:1052CC0000000C0000180000300000600000C0005E
:1052DC000180000300000600000C00000FFFFFC05F
:1052EC007FFFFF80000300000600000C0000180088
:1052FC0000300000600000C00001800003FFFF864A
:10530C0000000C0000180000300000600000C0001D
:10531C000180000300000600000C000018000000D3
:10532C000FFFE060003180003300006C000078005B
:10533C0000F00001E00000C0000180000301FFFE4E
:10534C0000003C0000780000F00001E00003C00009
:10535C000780000D800033000063000381FFFC0018
:10536C00C0000780000F00001E00003C0000780009
:10537C0000F00001E00003C0000780000F00001FD8
:10538C00FFFFFC0000780000F00001E00003C0000B
:10539C000780000F00001E00003C0000780000C0D9
:1053AC00FFFFFFFFFFF003030303030303030303E8
:1053BC00030303030303030306061CF0C0000300EE
:1053CC00003C0000F00006C000330001CC000630A9
:1053DC000030C00183000C0DFFE03001C0C0018320
:1053EC0000020C000C300018C000230000CC00019F
:1053FC00B00006C0000F000010C000180003000031
:10540C0060000C000180003000060000C000180095
:10541C0003000060000C000180003000060000C09A
:10542C0000180001800030000300001FFFC0600066
:10543C0003680002F600037900013C40011E3001B4
:10544C008F080087820083C180C1E04040F010408B
:10545C00780C603C02201E01B00F00700780000326
:10546C00C00001E00000F000007800003C00001ECD
:10547C0000000C600001F80000F600007980003C90
:10548C0060001E18000F060007818003C06001E059
:10549C001800F006007801803C00601E00180F0018
:1054AC000607800183C00061E00018F00006780058
:1054BC0001BC0000FE0000380FFFE06000318000EE
:1054CC003300006C0000780000F00001E00003C025
:1054DC00000780000F00001E00003C000078000058
:1054EC00F00001E00003C0000780000D80003300D5
:1054FC000063000181FFFC00FFFF8300038C0003AD
:10550C00B00006C0000F00003C0000F00003C0001B
:10551C000F00003C0001B0000EC000F3FFFF0C00B8
:10552C0000300000C0000300000C0000300000C080
:10553C0000030000000FFFE06000718000330000EA
:10554C006C0000780000F00001E00003C000078050
:10555C00000F00001E00003C0000780000F000016D
:10556C00E00003C000078000CD8001FB0001E300D8
:10557C0001C1FFFEC0FFFFE18000330000360000D8
:10558C002C0000780000F00001E00003C000078050
:10559C00000F00001600006C00019FFFFC3000386B
:1055AC00600030C0003180007300006600006C00A9
:1055BC0000780000C01FFFE0600071800036000022
:1055CC006C0000780000F00001E00000600000605A
:1055DC0000007FFF800001C00000C00001B000018E
:1055EC00E00003C0000780000D80003300006380E2
:1055FC000381FFFC00FFFFF800C0000300000C005B
:10560C0000300000C0000300000C0000300000C09F
:10561C00000300000C0000300000C0000300000C70
:10562C000000300000C0000300000C00003000003F
:10563C00C000C0000F00003C0000F00003C0000FD1
:10564C0000003C0000F00003C0000F00003C000014
:10565C00F00003C0000F00003C0000F00003C0008D
:10566C000F00003600019800063800703FFF0080E4
:10567C000003C0000640000660000C20000C300047
:10568C00181000181800300C00300C006006006078
:10569C000600C00300C0030180018180018300006B
:1056AC00C30000C600006400006C0000380000005D
:1056BC0001C00000600000B00000D80000C800006D
:1056CC00CC000046000063000061000061800020F7
:1056DC00C000306000302000303000101800180C72
:1056EC00001804001806000803000C01800C008050
:1056FC000C0040040060060030060010060008068E
:10570C00000C03000603000203000103000181806A
:10571C0000C1800041800031800030C00018C00002
:10572C0008C00006C00006400003400001600000F5
:10573C00E00000E000800002E0000670000C380081
:10574C00381C00700E00E00701C003838000C70006
:10575C00006E00003C00003800006C0000C6000128
:10576C0083000301800600E00C00703800387000E4
:10577C001CE0000EC00006C00003E0000770000E25
:10578C0038001C1800380C00300600600300C00103
:10579C00818000C300006600003C00001800001867
:1057AC000000180000180000180000180000180075
:1057BC00001800001800001800FFFFFC00000C008F
:1057CC0000380000F00003C0000E0000780001E07B
:1057DC00000780001C0000F00003C0000F00003820
:1057EC000001E0000780001C0000700003C00007EF
:1057FC0000000C00000FFFFFC000000000000000C4
:10580C000000000006000100000001050200FC0081
:10581C00010003010400FC00020005050600FC0069
:10582C00060005050600FC000A0005050600FC0044
:10583C000E0005050600FC00120001010200FC0030
:10584C00130002050300FC00150002050300FC0018
:10585C00170003030400FD00190003030400FD00FE
:10586C001B000102020000001C0004010500FE00E8
:10587C001D000101020000001E0005050600FC00D1
:10588C00220005050600FC00260001050200FC00B4
:10589C00270005050600FC002B0005050600FC0092
:1058AC002F0005050600FC00330005050600FC0072
:1058BC00370005050600FC003B0005050600FC0052
:1058CC003F0005050600FC00430005050600FC0032
:1058DC00470001040200FD00480001040200FD0025
:1058EC00490003050400FC004B0004030500FD0007
:1058FC004D0003050400FC004F0005050600FC00EC
:10590C00530005050600FC00570005050600FC00C9
:10591C005B0005050600FC005F0005050600FC00A9
:10592C00630005050600FC00670005050600FC0089
:10593C006B0005050600FC006F0005050600FC0069
:10594C00730005050600FC00770005050600FC0049
:10595C007B0005050600FC007F0005050600FC0029
:10596C00830005050600FC00870005050600FC0009
:10597C008B0005050600FC008F0005050600FC00E9
:10598C00930005050600FC00970005050600FC00C9
:10599C009B0005050600FC009F0005050600FC00A9
:1059AC00A30005050600FC00A70005050600FC0089
:1059BC00AB0005050600FC00AF0005050600FC0069
:1059CC00B30005050600FC00B70005050600FC0049
:1059DC00BB0005050600FC00BF0002050300FC002F
:1059EC00C10005050600FC00C50002050300FC0013
:1059FC00C70003020400FC00C800050106000100FA
:105A0C00C90001010200FC00CA0004040500FD00ED
:105A1C00CC0004050500FC00CF0004040500FD00CB
:105A2C00D10004050500FC00D40004040500FD00B1
:105A3C00D60003050400FC00D80004050500FD0099
:105A4C00DB0004050500FC00DE0001040200FD0083
:105A5C00DF0002050300FD00E10004050500FC0069
:105A6C00E40001050200FC00E50005040600FD0051
:105A7C00E80004040500FD00EA0004040500FD0034
:105A8C00EC0004050500FD00EF0004050500FD0019
:105A9C00F20004040500FD00F40004040500FD0000
:105AAC00F60005050600FC00FA0004040500FD00E4
:105ABC00FC0004040500FD00FE0005040600FD00CA
:105ACC00010104040500FD00030104050500FD00AF
:105ADC00060104040500FD00080103050400FC0098
:105AEC000A0101050200FC000B0103050400FC0087
:105AFC000D0105030600FD00E8A057D5F500FD3E9D
:105B0C005F8088888880F4BF2E80806A409580AA48
:105B1C00805D00C0F08008888800FC631F80F8F866
:105B2C007F0F80F87E1F808C7E1080FC3E1F80FCD7
:105B3C003F1F80F8421080FC7F1F80FC7E1F8090EE
:105B4C00B02A22F0F088A8F84E0200FD6F0F80FCFE
:105B5C007F1880F47D1F00FC210F80F4631F00FC74
:105B6C003F0F80FC3F0800FC2F1F808C7F1880F9B2
:105B7C00084F8078852F808DB1688084210F80FD3F
:105B8C006B5A80FC631880FC631F80FC7F0800FC50
:105B9C00633F80FC7F2900FC3E1F80F90842008C8B
:105BAC00631F808C62A200AD6B5F808A88A8808C9A
:105BBC00544200F87F0F80EAC082082080D5C05480
:105BCC00F880F1FF8F99F0F88F1F99F0FF8F6BA47D
:105BDC00F99F108F9990F055C08AF990F8FD6310D9
:105BEC00F999F99FF99F80F99F20F888471F27C8DA
:105BFC004200999F99978C6BF09669999F102E8F04
:105C0C002B22F889A80FE000120180321180FF3A94
:105C1C0081050AB1830006030A360108B602150293
:105C2C00B40100C08202700AC10105C2020102C5A2
:105C3C00823C380AFC021115E01009160920211BC0
:105C4C00131917151E2B0405020EE1900B14081ED8
:105C5C00221D181E1B1A242B0606020F0A2A0400EA
:105C6C000200812B040002008113800A2980FF00AE
:105C7C000F0180961180FFB103012C2DB203012C72
:105C8C002DB306012C2D012C2DB40107C003A2024B
:105C9C0084C101C5C2020A00C3028A2AC4028AEE68
:105CAC00C5010E20003601C83A010500022A040085
:105CBC000200812B04000100A0000000022A040055
:105CCC0000007F2B040000007F000000022A04006B
:105CDC0000004F2B040000009F00000004E01002A5
:105CEC001C07123732292D29252B3900010310E10D
:105CFC0010031D07062E2C292D2E2E373F000002D7
:105D0C001013800A29806400022A040000007F2BF3
:105D1C00040000009F00000018035400650065009B
:105D2C006E007300790020004D00490044004900CA
:105D3C0018035400650065006E0073007900640060
:105D4C00750069006E006F000403090409029500D8
:105D5C00030100C032080B0002020201000904001A
:105D6C0000010202010005240010010524010101BB
:105D7C000424020605240600010705820310001006
:105D8C0009040100020A000000070503024000009C
:105D9C000705830240000009040200020103000011
:105DAC00072401000125000624020101000624023B
:105DBC000202000924030103010201000924030269
:105DCC000401010100090504024000000000052542
:105DDC0001010109058402400000000005250101B4
:105DEC000300000009029500030100C032080B00FB
:105DFC000202020100090400000102020100052454
:105E0C0000100105240101010424020605240600EA
:105E1C00010705820310000509040100020A0000B5
:105E2C0000070503020002000705830200020009B7
:105E3C0004020002010300000724010001250006F2
:105E4C0024020101000624020202000924030103BA
:105E5C0001020100092403020401010100090504E7
:105E6C000200020000000525010101090584020061
:105E7C000200000005250101030000000A060002D3
:085E8C00EF02014001000101D9
:105E940000000000000000000000000000000000FE
:105EA40000000000000000000000000000000000EE
:105EB4004FF08442F8B5936955691D400DD0244FC5
:105EC4000126956195FAA5F4B4FA84F457F82430C0
:105ED40006FA04F49847A543F4D11E4A9369556918
:105EE4001D400DD01C4F0126956195FAA5F4B4FA16
:105EF40084F457F8243006FA04F49847A543F4D1FF
:105F0400164A936955691D400DD0154F01269561B8
:105F140095FAA5F4B4FA84F457F8243006FA04F494
:105F24009847A543F4D10F4A936955691D400ED093
:105F34000D4F0126956195FAA5F4B4FA84F457F847
:105F4400243006FA04F49847A543F4D1F8BDF8BD0B
:105F5400B82C002000400042382D00200080004270
:105F6400B82D002000C00042382E002010B5054C8A
:105F7400237833B9044B13B10448AFF300800123F1
:105F8400237010BD684F002000000000D49701006A
:105F9400084B10B51BB108490848AFF30080084806
:105FA400036803B910BD074B002BFBD0BDE81040BC
:105FB400184700BF000000006C4F0020D497010078
:105FC400C03200200000000000207047704700BF6E
:105FD400006910B10368DB6818477047006910B1A5
:105FE40003681B6918477047006910B103685B694F
:105FF40018474FF0FF307047006910B103689B6980
:1060040018477047006980B10368012200B583B066
:106014009B680DF10701984720B19DF8070003B074
:106024005DF804FB4FF0FF30F9E74FF0FF307047A5
:1060340000B5006983B08DF8071028B10368012208
:106044000DF10701DB68984703B05DF804FB00BF5E
:10605400036D0BB101207047406D003018BF012063
:10606400704700BF00680B68C01A7047704700BFD4
:1060740038B5054CA4F560752046103C17F096F928
:10608400AC42F9D138BD00BF2CAC002038B5054670
:1060940040B144F60C640444143C201D17F086F906
:1060A400A542F9D1284638BD10B50446806D18B113
:1060B40017F072FC0023A365236D2BB104F11800C3
:1060C400BDE8104010F098B9636D002BF6D110BDF7
:1060D400F0B5002395B04FF47A74234F1A46054661
:1060E400183104A88DF804308DF80C3012931393F2
:1060F4000294009710F0D4F9129B53B35C2000264D
:1061040017F0B2FA9DF804300446184A04A918306E
:106114002373029B22602361154A9DF80C30A26010
:106124002375666010F026F963684FF47A71114A9A
:106134000133A760A6652E712E732C616360A9607C
:106144002A600D4B04A8009310F056F9284615B0A8
:10615400F0BD139B002BD1D1064A2B71AC602B737D
:106164002B612A60EDE700BF9C110020C0110020C4
:106174001C120020701100203810002008B50120E6
:1061840014F002FA012801D9002008BD00F0010032
:1061940080F0010008BD00BF08B5062014F0F4F932
:1061A400012888BF002008BD08B5072014F0ECF9C9
:1061B400012888BF002008BD08B5082014F0E4F9C0
:1061C400012888BF002008BD08B5022014F0DCF9BE
:1061D400012888BF002008BD08B5032014F0D4F9B5
:1061E400012888BF002008BD08B5042014F0CCF9AC
:1061F4000138C3B2052B88BF052008BD08B50920A6
:1062040014F0C2F9A0F10100B0FA80F0400908BD11
:1062140008B50A2014F0B8F9A0F10100B0FA80F032
:10622400400908BD08B50B2014F0AEF9A0F1010037
:10623400B0FA80F0400908BD08B50C2014F0A4F9A8
:10624400102888BF012008BD10B50F49044618F076
:10625400A3FC68B90D4B044618700C2014F094F993
:10626400844210D021460C20BDE8104014F092BAAC
:10627400204617F02FFB054BC4B20C201C7014F001
:1062840083F98442EED110BDB81700200D2F0020F1
:10629400026D62B1137803F0080303F0FF000BB33F
:1062A400D3695069181A48BF6FF000407047416DB8
:1062B400C9B191F8313003F0080303F0FF008BB14A
:1062C400D1E90423D1E9000130B4101A4FF00005DC
:1062D4006FF0004463EB01018D4208BF844200D299
:1062E400204630BC70470846704700BF836C13B12A
:1062F40018460EF083B9C06C08B10BF0F1BE4FF034
:10630400FF307047836C00B583B063B11846012237
:106314000DF107010EF0A4F801280CD19DF8070037
:1063240003B05DF804FBC06C28B101220DF1070134
:106334000BF0FCFDF0E74FF0FF30F1E7836C13B195
:1063440018460EF0CBBBC06C08B10CF05DBB7047B7
:1063540000B5836C83B08DF8071043B11846012251
:106364000DF107010EF068FC03B05DF804FBC06C8E
:106374000028F9D001220DF107010CF0F9FD03B05A
:106384005DF804FB036DF0B50C4683B02BB31846DF
:106394000DF1060201A90DF0A9FED8B1BDF8043033
:1063A400BDF8062003B9AAB102F01F06C3F34315D2
:1063B4005912C2F3451703F01F037600013D01F59E
:1063C400EA61D21226706571A17123716770A2709F
:1063D40003B0F0BD002003B0F0BD406D0028F9D03B
:1063E4000DF1060201A90BF033FDD6E7036DF0B5FC
:1063F4000C4683B02BB318460DF1060201A90DF02B
:1064040065FED8B1BDF80430BDF8062003B9AAB1C1
:1064140002F01F06C3F343155912C2F3451703F0E4
:106424001F037600013D01F5EA61D2122670657101
:10643400A17123716770A27003B0F0BD002003B096
:10644400F0BD406D0028F9D00DF1060201A90BF052
:10645400EDFCD6E7036D9BB11A7812F0700F00D1F2
:10646400704710B50446002118460EF01DFA606D01
:1064740028B100220023BDE810400BF047BE10BD38
:10648400406D0028ECD090F8313013F0500FE7D075
:10649400002200230BF03ABE38B5846D0CB12046BF
:1064A40038BD05464FF4807017F06EFA0146A865B2
:1064B40080B1286D0C7028B14FF480720FF0A8FCE5
:1064C400AC6DECE7686D40B14FF480720DF020FACA
:1064D400AC6DE4E7024CAC65E1E70C46DFE700BFD6
:1064E40036B300208A79A2F150031B0621D402F2AC
:1064F4006C72F0B54B7985B0046D01330D798E78EB
:106504004F78DBB209784CB10391204602970421FD
:10651400019600950EF0E8FA05B0F0BD406D002834
:10652400FAD0039104218DE8E0000CF0E1FB05B002
:10653400F0BD0020704700BFD0B5046D8CB1012BB5
:1065440008BF002A01D30020D0BD114620460EF01A
:10655400ABF90028F7D020460EF032FB0028F2D029
:10656400D0BD446D002CEED020460BF0CFFD0028AA
:10657400E9D02046BDE8D0400CF088BC036D13B1CF
:10658400D86900217047436D13B118695969704780
:1065940018461946704700BF036D13B158690021AE
:1065A4007047436D13B193E80300704718461946CA
:1065B400704700BF036D13B118460DF051BF406D15
:1065C40008B10BF0B3BC4FF0FF307047036D13B14B
:1065D40018460EF013B8406D08B10BF081BD4FF0B2
:1065E400FF307047036D33B11B7813F0700F14BF85
:1065F400012000207047406D30B190F8313013F025
:10660400500F14BF01200020704700BF8A79A2F107
:1066140050031B0621D402F26C72F0B54B7985B09D
:10662400046D01330D798E784F78DBB209784CB163
:106634000391204602970221019600950EF054FA28
:1066440005B0F0BD406D0028FAD0039102218DE819
:10665400E0000CF04DFB05B0F0BD0020704700BF1A
:10666400036D13B118460EF039BA406D08B10CF041
:10667400CBB97047036D13B118460EF0DDBA406D07
:1066840008B10CF075BC7047836C13B118460EF05A
:10669400D3BAC06C08B10CF06BBC7047826C62B1A9
:1066A400137803F0080303F0FF000BB3D3695069B8
:1066B400181A48BF6FF000407047C16CC9B191F817
:1066C400313003F0080303F0FF008BB1D1E9042358
:1066D400D1E9000130B4101A4FF000056FF0004406
:1066E40063EB01018D4208BF844200D2204630BCD6
:1066F40070470846704700BF38B504460C4B806DA0
:10670400236018B117F048F90023A365236D04F141
:1067140018054BB128460FF06FFE064B2846A360C0
:106724000FF06AFE204638BD636D002BF2D1F4E70A
:10673400C01100203810002038B504460E4B806D7F
:10674400236018B117F028F90023A365236D04F121
:1067540018056BB128460FF04FFE084B2846A3607E
:106764000FF04AFE20465C2116F084FF204638BD17
:10677400636D002BEED1F0E7C0110020381000202B
:10678400D0B4039C16461F4634B1012C1ED0022CF3
:106794000DD00020D0BC7047046DDCB1012B08BFC4
:1067A400002AF6D220461146D0BC0EF07DB8036D07
:1067B400B3B1DA69B61847F10007012F08BF002EFC
:1067C400E7D231461846D0BC0EF06EB8036D93B1D3
:1067D4005A69EFE7406D0028DBD0D0BC0BF096BCC3
:1067E400436D002BD5D01846D3E9042392197B417D
:1067F400D0BC0BF08BBC436D002BCAD01846D3E938
:10680400002392197B41E8E710B517F063F8074BB2
:10681400C4B204201C7013F0B7FE844205D0214694
:106824000420BDE8104013F0B5BF10BD2CB3002008
:1068340010B50E4918F0B0F968B90D4B044618703C
:10684400082013F0A1FE84420ED021460820BDE8A2
:10685400104013F09FBF0123054A08201C46137003
:1068640013F092FE8442F0D110BD00BFBC1700208B
:106874002BB3002010B50E4918F08EF968B90D4BF2
:1068840004461870022013F07FFE84420ED0214685
:106894000220BDE8104013F07DBF0123054A022009
:1068A4001C46137013F070FE8442F0D110BD00BF7B
:1068B400BC17002046B3002010B50E4918F06CF93F
:1068C40068B90D4B04461870032013F05DFE844232
:1068D4000ED021460320BDE8104013F05BBF012316
:1068E400054A03201C46137013F04EFE8442F0D177
:1068F40010BD00BFBC17002037B3002010B50E49EF
:1069040018F04AF968B90D4B04461870092013F0C1
:106914003BFE84420ED021460920BDE8104013F00E
:1069240039BF0123054A09201C46137013F02CFEBD
:106934008442F0D110BD00BFBC17002050B300202A
:1069440010B50E4918F028F968B90D4B04461870B3
:106954000A2013F019FE84420ED021460A20BDE815
:10696400104013F017BF0123054A0A201C46137078
:1069740013F00AFE8442F0D110BD00BFBC17002002
:106984004EB3002010B50E4918F006F968B90D4B46
:10699400044618700B2013F0F7FD84420ED02146F4
:1069A4000B20BDE8104013F0F5BE0123054A0B206F
:1069B4001C46137013F0E8FD8442F0D110BD00BFF3
:1069C400BC1700204FB3002010B50E4918F0E4F8AE
:1069D40068B90D4B012401201C7013F0D5FD8442CD
:1069E4000ED021460120BDE8104013F0D3BE002391
:1069F400054A01201C46137013F0C6FD8442F0D1F1
:106A040010BD00BFC0170020002F002010B50E4994
:106A140018F0C2F868B90D4B04461870062013F03C
:106A2400B3FD84420ED021460620BDE8104013F089
:106A3400B1BE0123054A06201C46137013F0A4FDC1
:106A44008442F0D110BD00BFBC17002041B3002028
:106A540010B50E4918F0A0F868B90D4B044618702B
:106A6400072013F091FD84420ED021460720BDE893
:106A7400104013F08FBE0123054A07201C461370F3
:106A840013F082FD8442F0D110BD00BFBC1700207A
:106A94002AB3002010B50B4B04460069236018B1DB
:106AA4004368013B43600BB1204610BD0368DB6AB9
:106AB400984720690028F7D003685B689847204608
:106AC40010BD00BF7011002010B50F4B04460069C3
:106AD400236018B14368013B43602BB12046142165
:106AE40016F0C8FD204610BD0368DB6A984720698C
:106AF4000028F3D003685B6898472046142116F0F9
:106B0400B9FD204610BD00BF70110020204B1A684B
:106B1400136850681968936810B404681940D06801
:106B240004421BD0137C03F0030309B143F00403B4
:106B340043F008039910013B11740D2B0BD8DFE8C7
:106B440003F021071B070A152121150A071B07213A
:106B54005369013B53615DF8044B7047137C03F0A8
:106B640003030029E6D043F00403E3E753695DF827
:106B7400044B023B5361704753695DF8044B023385
:106B84005361704753695DF8044B01335361704797
:106B9400FC560020204B5A681368506819689368A3
:106BA40010B404681940D06804421BD0137C03F06D
:106BB400030309B143F0040343F008039910013BB4
:106BC40011740D2B0BD8DFE803F021071B070A15FE
:106BD4002121150A071B07215369013B53615DF805
:106BE400044B7047137C03F003030029E6D043F001
:106BF4000403E3E753695DF8044B023B53617047B8
:106C040053695DF8044B02335361704753695DF86F
:106C1400044B013353617047FC560020204B9A68A3
:106C2400136850681968936810B404681940D068F0
:106C340004421BD0137C03F0030309B143F00403A3
